{
  "_format": "hh-sol-artifact-1",
  "contractName": "Lock",
  "sourceName": "contracts/Lock.sol",
  "abi": [
    {
      "inputs": [
        {
          "internalType": "uint256",
          "name": "length",
          "type": "uint256"
        },
        {
          "internalType": "uint256",
          "name": "width",
          "type": "uint256"
        }
      ],
      "name": "areaOfARectangle",
      "outputs": [
        {
          "internalType": "uint256",
          "name": "",
          "type": "uint256"
        }
      ],
      "stateMutability": "pure",
      "type": "function"
    },
    {
      "inputs": [
        {
          "internalType": "uint256",
          "name": "lengthofOneSide",
          "type": "uint256"
        }
      ],
      "name": "areaOfASquare",
      "outputs": [
        {
          "internalType": "uint256",
          "name": "",
          "type": "uint256"
        }
      ],
      "stateMutability": "pure",
      "type": "function"
    },
    {
      "inputs": [
        {
          "internalType": "uint256",
          "name": "base",
          "type": "uint256"
        },
        {
          "internalType": "uint256",
          "name": "height",
          "type": "uint256"
        }
      ],
      "name": "areaOfATriangle",
      "outputs": [
        {
          "internalType": "uint256",
          "name": "",
          "type": "uint256"
        }
      ],
      "stateMutability": "pure",
      "type": "function"
    }
  ],
  "bytecode": "0x608060405234801561001057600080fd5b506102fc806100206000396000f3fe608060405234801561001057600080fd5b50600436106100415760003560e01c80630693a02b146100465780637fab3fc814610076578063d885ba45146100a6575b600080fd5b610060600480360381019061005b919061015e565b6100d6565b60405161006d91906101ad565b60405180910390f35b610090600480360381019061008b91906101c8565b6100ec565b60405161009d91906101ad565b60405180910390f35b6100c060048036038101906100bb919061015e565b610101565b6040516100cd91906101ad565b60405180910390f35b600081836100e49190610224565b905092915050565b600081826100fa9190610224565b9050919050565b6000600282846101119190610224565b61011b9190610295565b905092915050565b600080fd5b6000819050919050565b61013b81610128565b811461014657600080fd5b50565b60008135905061015881610132565b92915050565b6000806040838503121561017557610174610123565b5b600061018385828601610149565b925050602061019485828601610149565b9150509250929050565b6101a781610128565b82525050565b60006020820190506101c2600083018461019e565b92915050565b6000602082840312156101de576101dd610123565b5b60006101ec84828501610149565b91505092915050565b7f4e487b7100000000000000000000000000000000000000000000000000000000600052601160045260246000fd5b600061022f82610128565b915061023a83610128565b925082820261024881610128565b9150828204841483151761025f5761025e6101f5565b5b5092915050565b7f4e487b7100000000000000000000000000000000000000000000000000000000600052601260045260246000fd5b60006102a082610128565b91506102ab83610128565b9250826102bb576102ba610266565b5b82820490509291505056fea2646970667358221220d3f3907c029d33a9a39718151b0bbae62d5610e16b5cd365e60ae5a9b9f9163664736f6c63430008180033",
  "linkReferences": {},
  "deployedLinkReferences": {}
}